:020000040800F2
:100000000050002041070008DD060008E506000852
:10001000ED060008F5060008FD06000800000000D7
:1000200000000000000000000000000005070008BC
:1000300011070008000000001D070008290700083C
:100040008907000889070008890700088907000850
:100050008907000889070008890700088907000840
:100060008907000889070008890700088907000830
:100070008907000889070008890700088907000820
:100080008907000889070008890700088907000810
:100090008907000889070008890700088907000800
:1000A00089070008890700088907000889070008F0
:1000B00089070008890700088907000889070008E0
:1000C00089070008890700088907000889070008D0
:1000D00089070008890700088907000889070008C0
:1000E0008907000889070008890700080000000048
:1000F0000000000000000000000000000000000000
:0C01000000000000000000005FF808F1A3
:10010C0010B5054C237833B9044B13B10448AFF345
:10011C0000800123237010BD0400002000000000AB
:10012C00F807000808B5034B1BB103490348AFF3AC
:10013C00008008BD0000000008000020F80700083F
:10014C0080B485B000AF0346FB710B46BB71134600
:10015C007B710023FB73FB79022B7DD0022B00F308
:10016C00B680002B02D0012B3BD0B0E0BB79072B23
:10017C0017D85B4B1B68BA7992000F2101FA02F277
:10018C00D2431146564A0B401360554B1B68797984
:10019C00BA79920001FA02F21146514A0B431360EC
:1001AC001CE0BB790F2B19D8BB79083BBB714C4BAE
:1001BC001B68BA7992000F2101FA02F2D243114660
:1001CC00474A0B401360464B1B687979BA79920009
:1001DC0001FA02F21146424A0B4313600123FB73EE
:1001EC0077E0BB79072B17D83E4B1B68BA79920086
:1001FC000F2101FA02F2D24311463A4A0B40136026
:10020C00384B1B687979BA79920001FA02F21146DF
:10021C00344A0B4313601CE0BB790F2B19D8BB7904
:10022C00083BBB712F4B1B68BA7992000F2101FA66
:10023C0002F2D24311462B4A0B401360294B1B6828
:10024C007979BA79920001FA02F21146254A0B43E8
:10025C0013600123FB733CE0BB79072B17D8224BAF
:10026C001B68BA7992000F2101FA02F2D2431146AF
:10027C001D4A0B4013601C4B1B687979BA799200AC
:10028C0001FA02F21146184A0B4313601CE0BB79C9
:10029C000F2B19D8BB79083BBB71134B1B68BA7970
:1002AC0092000F2101FA02F2D24311460E4A0B4082
:1002BC0013600D4B1B687979BA79920001FA02F23E
:1002CC001146094A0B4313600123FB7301E0002321
:1002DC00FB73FB7B18461437BD4680BC704700BFD0
:1002EC0000080140000C01400010014080B485B0B2
:1002FC0000AF0346FB710B46BB7113467B710023A9
:10030C00FB73FB79022B4ED0022B70DC002B02D03E
:10031C00012B24D06BE07B79012B0CD1374B1B6864
:10032C00BA79012101FA02F21146344A0B431360E7
:10033C000123FB735BE07B79002B0DD12F4B1B68EA
:10034C00BA79012101FA02F2D24311462B4A0B4031
:10035C0013600123FB734AE00023FB7347E07B79B6
:10036C00012B0CD1264B1B68BA79012101FA02F240
:10037C001146234A0B4313600123FB7337E07B794F
:10038C00002B0DD11E4B1B68BA79012101FA02F228
:10039C00D24311461A4A0B4013600123FB7326E02B
:1003AC000023FB7323E07B79012B0CD1154B1B68CD
:1003BC00BA79012101FA02F21146124A0B43136079
:1003CC000123FB7312E07B79002B0DD10D4B1B68C5
:1003DC00BA79012101FA02F2D2431146094A0B40C3
:1003EC0013600123FB7301E00023FB7300BFFB7B55
:1003FC0018461437BD4680BC704700BF0C0801403E
:10040C000C0C01400C10014080B485B000AF0346C9
:10041C003A60FB710B46BB710023FB73FB79022B1B
:10042C0022D0022B2EDC002B02D0012B0ED029E087
:10043C00184B1A68BB7922FA03F3DBB203F0010301
:10044C00DAB23B681A700123FB731DE0124B1A6879
:10045C00BB7922FA03F3DBB203F00103DAB23B6897
:10046C001A700123FB730FE00C4B1A68BB7922FA4C
:10047C0003F3DBB203F00103DAB23B681A70012319
:10048C00FB7301E00023FB73FB7B18461437BD465E
:10049C0080BC704708080140080C0140081001405E
:1004AC0080B483B000AF0023FB71104B1B680F4A64
:1004BC0043F00103136000BF0C4B1B6803F00203F5
:1004CC00002BF9D00A4B1B68094A23F00103136077
:1004DC00074B1B68064A23F0020313600123FB71D0
:1004EC00FB7918460C37BD4680BC704700100240A3
:1004FC000410024080B485B000AF03460A46FB717D
:10050C001346BB710023FB73BB791F2B32D8FB79CD
:10051C00032B20D0032B2BDC012B02D0022B0DD074
:10052C0026E0174B1B68BA79012101FA02F2114639
:10053C00134A0B4313600123FB731BE0114B1B6825
:10054C00BA79012101FA02F211460E4A0B431360EB
:10055C000123FB730EE00C4B1B68BA79012101FAE5
:10056C0002F21146084A0B4313600123FB7301E0AE
:10057C000023FB73FB7B18461437BD4680BC7047C9
:10058C00141002401C1002401810024080B500AF3D
:10059C00FFF786FF02210320FFF7ACFF03210320A6
:1005AC00FFF7A8FF042201210020FFF7C9FD02225A
:1005BC0000210120FFF7C4FD022201210120FFF7D9
:1005CC00BFFD022202210120FFF7BAFD0222032106
:1005DC000120FFF7B5FD314A01210020FFF714FF80
:1005EC002E4B1B78012B1DD1012200210120FFF77E
:1005FC007DFE00F057F8012201210120FFF776FE65
:10060C0000F050F8012202210120FFF76FFE00F0EC
:10061C0049F8012203210120FFF768FE204B01223B
:10062C001A70D8E71D4B1B78002B21D11C4B1B7863
:10063C00012B1DD1002200210120FFF757FE00F0F5
:10064C0031F8002201210120FFF750FE00F02AF8BA
:10065C00002202210120FFF749FE00F023F80022BE
:10066C0003210120FFF742FE0D4B00221A7013E00C
:10067C00002200210120FFF739FE00220121012078
:10068C00FFF734FE002202210120FFF72FFE00228B
:10069C0003210120FFF72AFE9DE700BF2000002068
:1006AC002100002080B483B000AF00237B600023C6
:1006BC007B6002E07B6801337B607B6846F2A712AB
:1006CC009342F7D900BF00BF0C37BD4680BC7047C2
:1006DC0080B400AF00BFFDE780B400AF00BFFDE702
:1006EC0080B400AF00BFFDE780B400AF00BFFDE7F2
:1006FC0080B400AF00BFFDE780B400AF00BFBD46C3
:10070C0080BC704780B400AF00BFBD4680BC704752
:10071C0080B400AF00BFBD4680BC704780B500AF51
:10072C0000F02EF800BF80BD80B400AF00BFBD4606
:10073C0080BC7047FFF7F8FF0B480C490C4A0023AC
:10074C0002E0D458C4500433C4188C42F9D3094A7B
:10075C00094C002301E013600432A242FBD300F0E9
:10076C0021F8FFF713FF7047000000200400002061
:10077C00180800080400002028000020FEE70000F4
:10078C0080B400AF054B1B781A46054B1B6813440D
:10079C00034A136000BFBD4680BC704700000020B8
:1007AC002400002070B500260C4D0D4C641BA410C9
:1007BC00A64209D100F01AF800260A4D0A4C641B17
:1007CC00A410A64205D170BD55F8043B98470136DC
:1007DC00EEE755F8043B98470136F2E7100800089D
:1007EC00100800081008000814080008F8B500BF2D
:1007FC00F8BC08BC9E467047F8B500BFF8BC08BCF6
:04080C009E4670474D
:0408100031010008AA
:040814000D010008CA
:0408180001000000DB
:0400000508000741A7
:00000001FF
